:100000000C9456000C9400000C94CF000C9400004B
:100010000C9400000C9400000C9400000C94000060
:100020000C9400000C9400000C9400000C948600CA
:100030000C9400000C94B8000C9400000C94000088
:100040000C9400000C9400000C9400000C94000030
:100050000C9400001027E80364000A00010000105F
:1000600000011000010000004E696E6A61205761B6
:100070007900495020415020616E6400495020535E
:100080005441000080C00100020066000A006001C7
:1000900068000A006A017200070074017C000A000F
:1000A0007B0168000200BB0184000000F894EE2789
:1000B000ECBBF1E0FBBFEBBFE5BFF8E1F1BDE1BD9B
:1000C0008DE0A2E0BB27ED938A95E9F780E094E00C
:1000D000A0E6ED930197E9F7E6E8F0E085919591C8
:1000E000009761F0A591B59105901590BF01F001C1
:1000F00005900D920197E1F7FB01F0CFEFE5EDBF21
:10010000E4E0EEBFC0E6D1E00C94ED00EA93FA9390
:10011000EFB7EA931A930A931BB10CB1E12FEC717C
:1001200089F4E52D5394F0E0EB57FE4F0083E8E0AF
:10013000E51509F455247394E8E0E71519F47724DC
:10014000689420F80991199125C01A937720F1F34A
:10015000E42D4394F0E0EB57FE4F1081E8E0E41506
:1001600009F44424F8947A947894E12F199108952D
:10017000EA93FA93EFB7EA93882061F08A94E92D25
:100180009394F0E0E357FE4FE081ECB9E8E0E91525
:1001900009F49924E991EFBFF991E99118950A9230
:1001A0001A92FA926A937A938A939A93AA93BA9339
:1001B000EA93FA93EFB7EA93969A87D19698E991E2
:1001C000EFBFF991E991B991A991999189917991AB
:1001D0006991F990199009901895E0E0EBBBE0EF78
:1001E000EABBE0E0E8BBE7BBE5BBECE1E4BBE9E090
:1001F000E2BBE2EFE1BBE0E0E3BFE2BFECBFE2EA7B
:10020000EFBDEAE1EEBDE0E0EDBDECBDEEE4E7BD43
:10021000E0E2E6BDE0E0EBBDEABDE9BDE8BDE2BD80
:10022000E5BDE4BDE3BDEBB7E068EBBFE8E0E5BFEB
:10023000E0ECEABFE0E0E4BFE9BFEBB9E8EDEAB922
:10024000E6E8E0BDE0E0E0BDE3E3E9B9E0E8E8B915
:10025000E0E0E0BFE6B9EDB9E6BFE0E1EA930E9475
:100260003E030E947203E0E6F1E00E947903789475
:100270009698ECEBF2E0FBBDEABDE8EEF3E00E94FD
:100280007D03EEE7F4E0FBBDEABDE0E0F0E0FA93C9
:10029000EA93FA93EA9358D00E948103E093B50160
:1002A000F093B601FA93EA9302D0F6CFFFCFE8813C
:1002B000F981309701F5E1E0F0E05F01E3E0F0E083
:1002C000AE16BF0674F40E948603FF93EF930E945C
:1002D0008103AF91BF91ED93FC93F50131965F01DE
:1002E000EDCFE091B701F091B801FA93EA930E9443
:1002F0008E032AD023C0E130A0E0FA07D1F4E1E078
:10030000F0E05F01E3E0F0E0AE16BF0674F40E9497
:100310008603FF93EF930E948103AF91BF91ED930A
:10032000FC93F50131965F01EDCF0E948E0330D032
:1003300005C0E530A0E0FA0709F448D05EC1E881C5
:10034000F0E0F0970C947003EA81FB81309761F044
:10035000E130A0E0FA0711F4FED007C0E230A0E0DF
:10036000FA0711F4FBD001C0F3D0E881F98130978E
:1003700061F0E130A0E0FA0711F4E4D007C0E23008
:10038000A0E0FA0711F4E1D001C0D8D02496089576
:10039000E881F9813097C1F0E130A0E0FA0711F46B
:1003A000D1D013C0E230A0E0FA0711F4CED00DC0D6
:1003B000E330A0E0FA0711F4D6D007C0E430A0E0A3
:1003C000FA0711F4D5D001C0B9D017C124971A93F8
:1003D0000A930E9481031E2F0E9481030E2FAA24DC
:1003E000BB24E12F0E9495038CF4F501DE011496E5
:1003F000EA0FFB1FFF93EF930E948103AF91BF9120
:10040000EC93F50131965F013197EBCFAA24BB2421
:10041000E02F0E9495038CF4F501DE011296EA0F9D
:10042000FB1FFF93EF930E948103AF91BF91EC9369
:10043000F50131965F013197EBCF113019F4CC8083
:10044000DD2409C06D817727AC81EAE0EA9FF001E5
:10045000E60FF71F6F01013019F4EA81F0E008C0E0
:100460006B817727AA81EAE0EA9FF001E60FF71F88
:10047000E093B301F093B401AA24BB24AC14BD04EF
:100480006CF4F501EB56FE4FFF93EF935EDEAF91F8
:10049000BF91EC93F50131965F01F0CFAA24BB2404
:1004A0000E949A036CF4F501EC55FE4FFF93EF9315
:1004B0004CDEAF91BF91EC93F50131965F01F0CF27
:1004C00004D019810881269608950E947203EAE6F5
:1004D000F1E00E9479030E94A103E4E7F1E00E94A9
:1004E0007903E0EDF7E00E947D030E947203AA24E5
:1004F000BB24AC14BD0444F4A5E9B1E00E94A703F9
:10050000F50131965F01F5CF0E94A103AA24BB2417
:100510000E949A0344F4A4EAB1E00E94A703F50103
:1005200031965F01F5CFE0EDF7E00E947D030E9478
:10053000FF02EBE7F1E00E9479030895AC98AB98D5
:10054000AA9814C0AC98AB9A15C0AC9AAB980DC0E1
:10055000EEE7F4E005C0ECEBF2E002C0E0EFF5E01E
:10056000FBBDEABD0895AC98AB9AAA9A97980895F6
:10057000AC9AAB98AA98979A0895E881E07111F027
:10058000DB9A01C0DB98E881E07211F0DA9A01C0D1
:10059000DA98E881E07411F0D99A01C0D998E8811D
:1005A000E07811F0D89A01C0D89885E08A95F1F7E3
:1005B000AF9A8DE08A95F1F7AF988DE08A95F1F7C3
:1005C0008FC0E881EA93D9DFE881E295E883E8818A
:1005D000EA93D3DF85E88A95F1F782C0E881F0E0FD
:1005E000E554FE4FE081A981EA0FEA93EADFE98151
:1005F000E093BF01E881E093C00122960895E2E014
:100600000E94AD03ECE0EA93DCDFE1E00E94AD0381
:10061000E0E0E093C001E093BF010895A881AA3013
:1006200031F0E091C101A091BF01AE1768F0E0E0A8
:10063000EA93E091C001EF5FE093C001EA93CEDF5F
:10064000A881AA3009F44CC0E091BF01EF5FE093AC
:10065000BF01AD9AE881EA93B4DFAD9841C01A9327
:10066000A981BA81ED91A983BA831E2FE03019F0D8
:100670001A93D4DFF5CF188123960895D39AD29A8E
:10068000D19AD09AA79AA59AA69AAF98AD98AE9803
:10069000E881E093C101E058E093BD01E881E054B6
:1006A000E093BE01E4E1F0E00E947D030E94B30309
:1006B0000E94B3030E94B303E0E2EA935EDF88EC9A
:1006C00090E00197F1F7E8E2EA937BDFE4E0EA9358
:1006D00078DFE5E8EA9375DFE6E0EA9372DF8FDF23
:1006E000219608950E94FF02E0E0EA93EA930C94B9
:1006F000EE02FA93EA930C942F03FA93EA930C9484
:10070000BC030E94A500EA930C949F01F501A5EBA0
:10071000B1E0EE0FFF1FEA0FFB1F0895E091B90152
:10072000F091BA01FA93EA930895D501F0E0AE177B
:10073000BF070895E091B301F091B401AE16BF0672
:100740000895E0E0EA93E1E0EA930C94EE02AA0D4A
:10075000BB1DEC91EA930C940E03EA930E94E10214
:10076000E3E0F0E0CACFE0E3EA930E94BD0288EC48
:1007700090E00197F1F70895E991F991309639F0F9
:1007800080ED97E00197F1F7A8953197C9F70895A3
:00000001FF
